{
  "_format": "hh-sol-artifact-1",
  "contractName": "SimpleVoting",
  "sourceName": "contracts/SimpleVoting.sol",
  "abi": [
    {
      "inputs": [],
      "stateMutability": "nonpayable",
      "type": "constructor"
    },
    {
      "anonymous": false,
      "inputs": [
        {
          "indexed": true,
          "internalType": "uint256",
          "name": "ballotId",
          "type": "uint256"
        },
        {
          "indexed": false,
          "internalType": "string",
          "name": "title",
          "type": "string"
        },
        {
          "indexed": false,
          "internalType": "uint256",
          "name": "start",
          "type": "uint256"
        },
        {
          "indexed": false,
          "internalType": "uint256",
          "name": "end",
          "type": "uint256"
        },
        {
          "indexed": false,
          "internalType": "bytes32",
          "name": "merkleRoot",
          "type": "bytes32"
        },
        {
          "indexed": false,
          "internalType": "string[]",
          "name": "candidateNames",
          "type": "string[]"
        }
      ],
      "name": "BallotCreated",
      "type": "event"
    },
    {
      "anonymous": false,
      "inputs": [
        {
          "indexed": true,
          "internalType": "uint256",
          "name": "ballotId",
          "type": "uint256"
        },
        {
          "indexed": false,
          "internalType": "uint256",
          "name": "oldEnd",
          "type": "uint256"
        },
        {
          "indexed": false,
          "internalType": "uint256",
          "name": "newEnd",
          "type": "uint256"
        }
      ],
      "name": "BallotExtended",
      "type": "event"
    },
    {
      "anonymous": false,
      "inputs": [
        {
          "indexed": true,
          "internalType": "uint256",
          "name": "ballotId",
          "type": "uint256"
        }
      ],
      "name": "BallotFinalized",
      "type": "event"
    },
    {
      "anonymous": false,
      "inputs": [
        {
          "indexed": true,
          "internalType": "uint256",
          "name": "ballotId",
          "type": "uint256"
        },
        {
          "indexed": false,
          "internalType": "bytes32",
          "name": "oldRoot",
          "type": "bytes32"
        },
        {
          "indexed": false,
          "internalType": "bytes32",
          "name": "newRoot",
          "type": "bytes32"
        }
      ],
      "name": "MerkleRootUpdated",
      "type": "event"
    },
    {
      "anonymous": false,
      "inputs": [
        {
          "indexed": true,
          "internalType": "address",
          "name": "previousOwner",
          "type": "address"
        },
        {
          "indexed": true,
          "internalType": "address",
          "name": "newOwner",
          "type": "address"
        }
      ],
      "name": "OwnershipTransferred",
      "type": "event"
    },
    {
      "anonymous": false,
      "inputs": [
        {
          "indexed": false,
          "internalType": "address",
          "name": "account",
          "type": "address"
        }
      ],
      "name": "Paused",
      "type": "event"
    },
    {
      "anonymous": false,
      "inputs": [
        {
          "indexed": false,
          "internalType": "address",
          "name": "account",
          "type": "address"
        }
      ],
      "name": "Unpaused",
      "type": "event"
    },
    {
      "anonymous": false,
      "inputs": [
        {
          "indexed": true,
          "internalType": "uint256",
          "name": "ballotId",
          "type": "uint256"
        },
        {
          "indexed": true,
          "internalType": "address",
          "name": "voter",
          "type": "address"
        },
        {
          "indexed": false,
          "internalType": "uint256",
          "name": "optionId",
          "type": "uint256"
        },
        {
          "indexed": false,
          "internalType": "string",
          "name": "candidateName",
          "type": "string"
        }
      ],
      "name": "Voted",
      "type": "event"
    },
    {
      "inputs": [
        {
          "internalType": "uint256",
          "name": "",
          "type": "uint256"
        }
      ],
      "name": "ballots",
      "outputs": [
        {
          "internalType": "string",
          "name": "title",
          "type": "string"
        },
        {
          "internalType": "uint256",
          "name": "startTimestamp",
          "type": "uint256"
        },
        {
          "internalType": "uint256",
          "name": "endTimestamp",
          "type": "uint256"
        },
        {
          "internalType": "bytes32",
          "name": "merkleRoot",
          "type": "bytes32"
        },
        {
          "internalType": "bool",
          "name": "exists",
          "type": "bool"
        },
        {
          "internalType": "bool",
          "name": "finalized",
          "type": "bool"
        }
      ],
      "stateMutability": "view",
      "type": "function"
    },
    {
      "inputs": [
        {
          "internalType": "uint256",
          "name": "ballotId",
          "type": "uint256"
        }
      ],
      "name": "candidateCount",
      "outputs": [
        {
          "internalType": "uint256",
          "name": "",
          "type": "uint256"
        }
      ],
      "stateMutability": "view",
      "type": "function"
    },
    {
      "inputs": [
        {
          "internalType": "uint256",
          "name": "",
          "type": "uint256"
        },
        {
          "internalType": "uint256",
          "name": "",
          "type": "uint256"
        }
      ],
      "name": "candidateVotes",
      "outputs": [
        {
          "internalType": "uint256",
          "name": "",
          "type": "uint256"
        }
      ],
      "stateMutability": "view",
      "type": "function"
    },
    {
      "inputs": [
        {
          "internalType": "string",
          "name": "title",
          "type": "string"
        },
        {
          "internalType": "uint256",
          "name": "startTimestamp",
          "type": "uint256"
        },
        {
          "internalType": "uint256",
          "name": "endTimestamp",
          "type": "uint256"
        },
        {
          "internalType": "bytes32",
          "name": "merkleRoot",
          "type": "bytes32"
        },
        {
          "internalType": "string[]",
          "name": "candidateNames",
          "type": "string[]"
        }
      ],
      "name": "createBallot",
      "outputs": [
        {
          "internalType": "uint256",
          "name": "",
          "type": "uint256"
        }
      ],
      "stateMutability": "nonpayable",
      "type": "function"
    },
    {
      "inputs": [
        {
          "internalType": "uint256",
          "name": "ballotId",
          "type": "uint256"
        },
        {
          "internalType": "uint256",
          "name": "newEndTimestamp",
          "type": "uint256"
        }
      ],
      "name": "extendBallotEnd",
      "outputs": [],
      "stateMutability": "nonpayable",
      "type": "function"
    },
    {
      "inputs": [
        {
          "internalType": "uint256",
          "name": "ballotId",
          "type": "uint256"
        }
      ],
      "name": "finalizeBallot",
      "outputs": [],
      "stateMutability": "nonpayable",
      "type": "function"
    },
    {
      "inputs": [
        {
          "internalType": "uint256",
          "name": "ballotId",
          "type": "uint256"
        },
        {
          "internalType": "string",
          "name": "candidateName",
          "type": "string"
        }
      ],
      "name": "findCandidateIdByName",
      "outputs": [
        {
          "internalType": "bool",
          "name": "",
          "type": "bool"
        },
        {
          "internalType": "uint256",
          "name": "",
          "type": "uint256"
        }
      ],
      "stateMutability": "view",
      "type": "function"
    },
    {
      "inputs": [
        {
          "internalType": "uint256",
          "name": "ballotId",
          "type": "uint256"
        }
      ],
      "name": "getBallot",
      "outputs": [
        {
          "internalType": "string",
          "name": "title",
          "type": "string"
        },
        {
          "internalType": "uint256",
          "name": "startTimestamp",
          "type": "uint256"
        },
        {
          "internalType": "uint256",
          "name": "endTimestamp",
          "type": "uint256"
        },
        {
          "internalType": "bytes32",
          "name": "merkleRoot",
          "type": "bytes32"
        },
        {
          "internalType": "uint256",
          "name": "candidateCount_",
          "type": "uint256"
        },
        {
          "internalType": "bool",
          "name": "finalized",
          "type": "bool"
        }
      ],
      "stateMutability": "view",
      "type": "function"
    },
    {
      "inputs": [
        {
          "internalType": "uint256",
          "name": "ballotId",
          "type": "uint256"
        },
        {
          "internalType": "uint256",
          "name": "index",
          "type": "uint256"
        }
      ],
      "name": "getCandidateName",
      "outputs": [
        {
          "internalType": "string",
          "name": "",
          "type": "string"
        }
      ],
      "stateMutability": "view",
      "type": "function"
    },
    {
      "inputs": [
        {
          "internalType": "uint256",
          "name": "ballotId",
          "type": "uint256"
        }
      ],
      "name": "getResults",
      "outputs": [
        {
          "internalType": "uint256[]",
          "name": "",
          "type": "uint256[]"
        }
      ],
      "stateMutability": "view",
      "type": "function"
    },
    {
      "inputs": [
        {
          "internalType": "uint256",
          "name": "ballotId",
          "type": "uint256"
        },
        {
          "internalType": "uint256",
          "name": "candidateIndex",
          "type": "uint256"
        }
      ],
      "name": "getVotes",
      "outputs": [
        {
          "internalType": "uint256",
          "name": "",
          "type": "uint256"
        }
      ],
      "stateMutability": "view",
      "type": "function"
    },
    {
      "inputs": [
        {
          "internalType": "uint256",
          "name": "ballotId",
          "type": "uint256"
        },
        {
          "internalType": "string",
          "name": "candidateName",
          "type": "string"
        }
      ],
      "name": "getVotesByName",
      "outputs": [
        {
          "internalType": "uint256",
          "name": "",
          "type": "uint256"
        }
      ],
      "stateMutability": "view",
      "type": "function"
    },
    {
      "inputs": [
        {
          "internalType": "uint256",
          "name": "ballotId",
          "type": "uint256"
        }
      ],
      "name": "getWinners",
      "outputs": [
        {
          "internalType": "string[]",
          "name": "winners",
          "type": "string[]"
        },
        {
          "internalType": "uint256",
          "name": "winningVotes",
          "type": "uint256"
        }
      ],
      "stateMutability": "view",
      "type": "function"
    },
    {
      "inputs": [
        {
          "internalType": "uint256",
          "name": "ballotId",
          "type": "uint256"
        },
        {
          "internalType": "address",
          "name": "user",
          "type": "address"
        }
      ],
      "name": "hasUserVoted",
      "outputs": [
        {
          "internalType": "bool",
          "name": "",
          "type": "bool"
        }
      ],
      "stateMutability": "view",
      "type": "function"
    },
    {
      "inputs": [
        {
          "internalType": "uint256",
          "name": "",
          "type": "uint256"
        },
        {
          "internalType": "address",
          "name": "",
          "type": "address"
        }
      ],
      "name": "hasVoted",
      "outputs": [
        {
          "internalType": "bool",
          "name": "",
          "type": "bool"
        }
      ],
      "stateMutability": "view",
      "type": "function"
    },
    {
      "inputs": [],
      "name": "nextBallotId",
      "outputs": [
        {
          "internalType": "uint256",
          "name": "",
          "type": "uint256"
        }
      ],
      "stateMutability": "view",
      "type": "function"
    },
    {
      "inputs": [],
      "name": "owner",
      "outputs": [
        {
          "internalType": "address",
          "name": "",
          "type": "address"
        }
      ],
      "stateMutability": "view",
      "type": "function"
    },
    {
      "inputs": [],
      "name": "pause",
      "outputs": [],
      "stateMutability": "nonpayable",
      "type": "function"
    },
    {
      "inputs": [],
      "name": "paused",
      "outputs": [
        {
          "internalType": "bool",
          "name": "",
          "type": "bool"
        }
      ],
      "stateMutability": "view",
      "type": "function"
    },
    {
      "inputs": [],
      "name": "renounceOwnership",
      "outputs": [],
      "stateMutability": "nonpayable",
      "type": "function"
    },
    {
      "inputs": [
        {
          "internalType": "address",
          "name": "newOwner",
          "type": "address"
        }
      ],
      "name": "transferOwnership",
      "outputs": [],
      "stateMutability": "nonpayable",
      "type": "function"
    },
    {
      "inputs": [],
      "name": "unpause",
      "outputs": [],
      "stateMutability": "nonpayable",
      "type": "function"
    },
    {
      "inputs": [
        {
          "internalType": "uint256",
          "name": "ballotId",
          "type": "uint256"
        },
        {
          "internalType": "bytes32",
          "name": "newRoot",
          "type": "bytes32"
        }
      ],
      "name": "updateMerkleRoot",
      "outputs": [],
      "stateMutability": "nonpayable",
      "type": "function"
    },
    {
      "inputs": [
        {
          "internalType": "uint256",
          "name": "ballotId",
          "type": "uint256"
        },
        {
          "internalType": "string",
          "name": "candidateName",
          "type": "string"
        },
        {
          "internalType": "bytes32[]",
          "name": "merkleProof",
          "type": "bytes32[]"
        }
      ],
      "name": "vote",
      "outputs": [],
      "stateMutability": "nonpayable",
      "type": "function"
    }
  ],
  "bytecode": "0x60806040523480156200001157600080fd5b5062000032620000266200005260201b60201c565b6200005a60201b60201c565b60008060146101000a81548160ff0219169083151502179055506200011e565b600033905090565b60008060009054906101000a900473ffffffffffffffffffffffffffffffffffffffff169050816000806101000a81548173ffffffffffffffffffffffffffffffffffffffff021916908373ffffffffffffffffffffffffffffffffffffffff1602179055508173ffffffffffffffffffffffffffffffffffffffff168173ffffffffffffffffffffffffffffffffffffffff167f8be0079c531659141344cd1fd0a4f28419497f9722a3daafe3b4186f6b6457e060405160405180910390a35050565b613b28806200012e6000396000f3fe608060405234801561001057600080fd5b50600436106101585760003560e01c806391f36633116100c3578063dc296ae11161007c578063dc296ae114610406578063dc6bfbb514610436578063e6143b0814610454578063f1e3311514610470578063f2fde38b1461048c578063f9d5ee75146104a857610158565b806391f36633146102f9578063b024419e14610329578063b1ff97c114610359578063c43d9e5614610389578063db60dbed146103a5578063dbe0cd79146103d557610158565b80636b1426a4116101155780636b1426a41461024a578063715018a61461027b5780637b3ef6161461028557806381a60c0d146102a15780638456cb59146102d15780638da5cb5b146102db57610158565b8063044b2e011461015d5780632ff0f8d91461018d5780633f4ba83a146101bd57806343859632146101c75780635c632b38146101f75780635c975abb1461022c575b600080fd5b610177600480360381019061017291906122b4565b6104dd565b6040516101849190612323565b60405180910390f35b6101a760048036038101906101a291906123ca565b610608565b6040516101b49190612323565b60405180910390f35b6101c56108f2565b005b6101e160048036038101906101dc91906124e4565b610904565b6040516101ee919061253f565b60405180910390f35b610211600480360381019061020c919061255a565b610933565b60405161022396959493929190612626565b60405180910390f35b610234610a11565b604051610241919061253f565b60405180910390f35b610264600480360381019061025f919061255a565b610a27565b60405161027292919061279a565b60405180910390f35b610283610e00565b005b61029f600480360381019061029a919061255a565b610e14565b005b6102bb60048036038101906102b6919061255a565b610fb1565b6040516102c89190612888565b60405180910390f35b6102d96110f6565b005b6102e3611108565b6040516102f091906128b9565b60405180910390f35b610313600480360381019061030e91906128d4565b611131565b6040516103209190612323565b60405180910390f35b610343600480360381019061033e91906128d4565b6111c5565b6040516103509190612914565b60405180910390f35b610373600480360381019061036e919061255a565b61133e565b6040516103809190612323565b60405180910390f35b6103a3600480360381019061039e91906128d4565b6113c6565b005b6103bf60048036038101906103ba91906128d4565b61153c565b6040516103cc9190612323565b60405180910390f35b6103ef60048036038101906103ea91906122b4565b611561565b6040516103fd929190612936565b60405180910390f35b610420600480360381019061041b91906124e4565b611661565b60405161042d919061253f565b60405180910390f35b61043e61172e565b60405161044b9190612323565b60405180910390f35b61046e600480360381019061046991906129b5565b611734565b005b61048a60048036038101906104859190612a4a565b611bb6565b005b6104a660048036038101906104a19190612a8a565b611ce6565b005b6104c260048036038101906104bd919061255a565b611d69565b6040516104d496959493929190612ab7565b60405180910390f35b6000836001600082815260200190815260200160002060050160009054906101000a900460ff16610543576040517f08c379a000000000000000000000000000000000000000000000000000000000815260040161053a90612b6b565b60405180910390fd5b60008484604051610555929190612bca565b604051809103902090506000600460008881526020019081526020016000206000838152602001908152602001600020549050600081036105cb576040517f08c379a00000000000000000000000000000000000000000000000000000000081526004016105c290612c2f565b60405180910390fd5b6002600088815260200190815260200160002060006001836105ed9190612c7e565b81526020019081526020016000205493505050509392505050565b6000610612611ebe565b61061a611f3c565b84861061065c576040517f08c379a000000000000000000000000000000000000000000000000000000000815260040161065390612cfe565b60405180910390fd5b600083839050116106a2576040517f08c379a000000000000000000000000000000000000000000000000000000000815260040161069990612d6a565b60405180910390fd5b6000600560008154809291906106b790612d8a565b919050559050600060016000838152602001908152602001600020905089898260000191826106e7929190613018565b5087816001018190555086816002018190555085816003018190555060018160050160006101000a81548160ff02191690831515021790555060008160050160016101000a81548160ff02191690831515021790555060005b8585905081101561089d5760008686838181106107605761075f6130e8565b5b90506020028101906107729190613126565b604051610780929190612bca565b60405180910390209050600060046000868152602001908152602001600020600083815260200190815260200160002054146107f1576040517f08c379a00000000000000000000000000000000000000000000000000000000081526004016107e8906131d5565b60405180910390fd5b82600401878784818110610808576108076130e8565b5b905060200281019061081a9190613126565b90918060018154018082558091505060019003906000526020600020016000909192909192909192909192509182610853929190613018565b5060018261086191906131f5565b6004600086815260200190815260200160002060008381526020019081526020016000208190555050808061089590612d8a565b915050610740565b50817f70a6e42699e91893f0b77cbaebe215c019c796093f9cc10ede4e857bea80db5e8b8b8b8b8b8b8b6040516108da9796959493929190613398565b60405180910390a28192505050979650505050505050565b6108fa611ebe565b610902611f86565b565b60036020528160005260406000206020528060005260406000206000915091509054906101000a900460ff1681565b600160205280600052604060002060009150905080600001805461095690612e3b565b80601f016020809104026020016040519081016040528092919081815260200182805461098290612e3b565b80156109cf5780601f106109a4576101008083540402835291602001916109cf565b820191906000526020600020905b8154815290600101906020018083116109b257829003601f168201915b5050505050908060010154908060020154908060030154908060050160009054906101000a900460ff16908060050160019054906101000a900460ff16905086565b60008060149054906101000a900460ff16905090565b60606000826001600082815260200190815260200160002060050160009054906101000a900460ff16610a8f576040517f08c379a0000000000000000000000000000000000000000000000000000000008152600401610a8690612b6b565b60405180910390fd5b60006001600086815260200190815260200160002090508060050160019054906101000a900460ff16610af7576040517f08c379a0000000000000000000000000000000000000000000000000000000008152600401610aee90613449565b60405180910390fd5b60008160040180549050905060008103610b6757600067ffffffffffffffff811115610b2657610b25612ddd565b5b604051908082528060200260200182016040528015610b5957816020015b6060815260200190600190039081610b445790505b506000945094505050610dfa565b6000805b82811015610bbc576000600260008a8152602001908152602001600020600083815260200190815260200160002054905082811115610ba8578092505b508080610bb490612d8a565b915050610b6b565b5060008103610c2257600067ffffffffffffffff811115610be057610bdf612ddd565b5b604051908082528060200260200182016040528015610c1357816020015b6060815260200190600190039081610bfe5790505b50600095509550505050610dfa565b6000805b83811015610c7b5782600260008b815260200190815260200160002060008381526020019081526020016000205403610c68578180610c6490612d8a565b9250505b8080610c7390612d8a565b915050610c26565b5060008167ffffffffffffffff811115610c9857610c97612ddd565b5b604051908082528060200260200182016040528015610ccb57816020015b6060815260200190600190039081610cb65790505b5090506000805b85811015610dec5784600260008d815260200190815260200160002060008381526020019081526020016000205403610dd957866004018181548110610d1b57610d1a6130e8565b5b906000526020600020018054610d3090612e3b565b80601f0160208091040260200160405190810160405280929190818152602001828054610d5c90612e3b565b8015610da95780601f10610d7e57610100808354040283529160200191610da9565b820191906000526020600020905b815481529060010190602001808311610d8c57829003601f168201915b5050505050838380610dba90612d8a565b945081518110610dcd57610dcc6130e8565b5b60200260200101819052505b8080610de490612d8a565b915050610cd2565b508184985098505050505050505b50915091565b610e08611ebe565b610e126000611fe8565b565b806001600082815260200190815260200160002060050160009054906101000a900460ff16610e78576040517f08c379a0000000000000000000000000000000000000000000000000000000008152600401610e6f90612b6b565b60405180910390fd5b60006001600084815260200190815260200160002090508060050160019054906101000a900460ff1615610ee1576040517f08c379a0000000000000000000000000000000000000000000000000000000008152600401610ed8906134b5565b60405180910390fd5b610ee9611108565b73ffffffffffffffffffffffffffffffffffffffff163373ffffffffffffffffffffffffffffffffffffffff1614610f625780600201544211610f61576040517f08c379a0000000000000000000000000000000000000000000000000000000008152600401610f5890613521565b60405180910390fd5b5b60018160050160016101000a81548160ff021916908315150217905550827fd470bb0d3dcb39ff5a62757e0a1cdfe60f8200eba22fd0d82383630d457f868660405160405180910390a2505050565b6060816001600082815260200190815260200160002060050160009054906101000a900460ff16611017576040517f08c379a000000000000000000000000000000000000000000000000000000000815260040161100e90612b6b565b60405180910390fd5b600060016000858152602001908152602001600020905060008160040180549050905060008167ffffffffffffffff81111561105657611055612ddd565b5b6040519080825280602002602001820160405280156110845781602001602082028036833780820191505090505b50905060005b828110156110e957600260008881526020019081526020016000206000828152602001908152602001600020548282815181106110ca576110c96130e8565b5b60200260200101818152505080806110e190612d8a565b91505061108a565b5080945050505050919050565b6110fe611ebe565b6111066120ac565b565b60008060009054906101000a900473ffffffffffffffffffffffffffffffffffffffff16905090565b6000826001600082815260200190815260200160002060050160009054906101000a900460ff16611197576040517f08c379a000000000000000000000000000000000000000000000000000000000815260040161118e90612b6b565b60405180910390fd5b6002600085815260200190815260200160002060008481526020019081526020016000205491505092915050565b6060826001600082815260200190815260200160002060050160009054906101000a900460ff1661122b576040517f08c379a000000000000000000000000000000000000000000000000000000000815260040161122290612b6b565b60405180910390fd5b60006001600086815260200190815260200160002090508060040180549050841061128b576040517f08c379a00000000000000000000000000000000000000000000000000000000081526004016112829061358d565b60405180910390fd5b8060040184815481106112a1576112a06130e8565b5b9060005260206000200180546112b690612e3b565b80601f01602080910402602001604051908101604052809291908181526020018280546112e290612e3b565b801561132f5780601f106113045761010080835404028352916020019161132f565b820191906000526020600020905b81548152906001019060200180831161131257829003601f168201915b50505050509250505092915050565b6000816001600082815260200190815260200160002060050160009054906101000a900460ff166113a4576040517f08c379a000000000000000000000000000000000000000000000000000000000815260040161139b90612b6b565b60405180910390fd5b6001600084815260200190815260200160002060040180549050915050919050565b6113ce611ebe565b816001600082815260200190815260200160002060050160009054906101000a900460ff16611432576040517f08c379a000000000000000000000000000000000000000000000000000000000815260040161142990612b6b565b60405180910390fd5b61143a611f3c565b60006001600085815260200190815260200160002090508060050160019054906101000a900460ff16156114a3576040517f08c379a000000000000000000000000000000000000000000000000000000000815260040161149a906134b5565b60405180910390fd5b806002015483116114e9576040517f08c379a00000000000000000000000000000000000000000000000000000000081526004016114e0906135f9565b60405180910390fd5b600081600201549050838260020181905550847f965980729cde177ea35cff234f41769c083ffe02a7203e655bbe888e5cf3e21c828660405161152d929190613619565b60405180910390a25050505050565b6002602052816000526040600020602052806000526040600020600091509150505481565b600080846001600082815260200190815260200160002060050160009054906101000a900460ff166115c8576040517f08c379a00000000000000000000000000000000000000000000000000000000081526004016115bf90612b6b565b60405180910390fd5b600085856040516115da929190612bca565b604051809103902090506000600460008981526020019081526020016000206000838152602001908152602001600020549050600081036116435760007fffffffffffffffffffffffffffffffffffffffffffffffffffffffffffffffff945094505050611658565b600180826116519190612c7e565b9450945050505b50935093915050565b6000826001600082815260200190815260200160002060050160009054906101000a900460ff166116c7576040517f08c379a00000000000000000000000000000000000000000000000000000000081526004016116be90612b6b565b60405180910390fd5b6003600085815260200190815260200160002060008473ffffffffffffffffffffffffffffffffffffffff1673ffffffffffffffffffffffffffffffffffffffff16815260200190815260200160002060009054906101000a900460ff1691505092915050565b60055481565b846001600082815260200190815260200160002060050160009054906101000a900460ff16611798576040517f08c379a000000000000000000000000000000000000000000000000000000000815260040161178f90612b6b565b60405180910390fd5b85600060016000838152602001908152602001600020905080600101544210156117f7576040517f08c379a00000000000000000000000000000000000000000000000000000000081526004016117ee9061368e565b60405180910390fd5b806002015442111561183e576040517f08c379a0000000000000000000000000000000000000000000000000000000008152600401611835906136fa565b60405180910390fd5b611846611f3c565b6000600160008a815260200190815260200160002090508060050160019054906101000a900460ff16156118af576040517f08c379a00000000000000000000000000000000000000000000000000000000081526004016118a690613766565b60405180910390fd5b600360008a815260200190815260200160002060003373ffffffffffffffffffffffffffffffffffffffff1673ffffffffffffffffffffffffffffffffffffffff16815260200190815260200160002060009054906101000a900460ff161561194d576040517f08c379a0000000000000000000000000000000000000000000000000000000008152600401611944906137d2565b60405180910390fd5b6000801b816003015414611a175760003360405160200161196e919061383a565b6040516020818303038152906040528051906020012090506119d6878780806020026020016040519081016040528093929190818152602001838360200280828437600081840152601f19601f8201169050808301925050505050505083600301548361210f565b611a15576040517f08c379a0000000000000000000000000000000000000000000000000000000008152600401611a0c906138a1565b60405180910390fd5b505b60008888604051611a29929190612bca565b604051809103902090506000600460008c8152602001908152602001600020600083815260200190815260200160002054905060008103611a9f576040517f08c379a0000000000000000000000000000000000000000000000000000000008152600401611a9690612c2f565b60405180910390fd5b6000600182611aae9190612c7e565b90506001600260008e815260200190815260200160002060008381526020019081526020016000206000828254611ae591906131f5565b925050819055506001600360008e815260200190815260200160002060003373ffffffffffffffffffffffffffffffffffffffff1673ffffffffffffffffffffffffffffffffffffffff16815260200190815260200160002060006101000a81548160ff0219169083151502179055503373ffffffffffffffffffffffffffffffffffffffff168c7f625921c92dca9c9efdb99d32aab025a83a24aa52d095977f2f07be33d0da2f61838e8e604051611ba0939291906138c1565b60405180910390a3505050505050505050505050565b611bbe611ebe565b816001600082815260200190815260200160002060050160009054906101000a900460ff16611c22576040517f08c379a0000000000000000000000000000000000000000000000000000000008152600401611c1990612b6b565b60405180910390fd5b611c2a611f3c565b60006001600085815260200190815260200160002090508060050160019054906101000a900460ff1615611c93576040517f08c379a0000000000000000000000000000000000000000000000000000000008152600401611c8a906134b5565b60405180910390fd5b600081600301549050838260030181905550847f1cb89f7d8697e1d5c6f3bcdfeb0272652e14939019b16dd05e212084b79d337c8286604051611cd79291906138f3565b60405180910390a25050505050565b611cee611ebe565b600073ffffffffffffffffffffffffffffffffffffffff168173ffffffffffffffffffffffffffffffffffffffff1603611d5d576040517f08c379a0000000000000000000000000000000000000000000000000000000008152600401611d549061398e565b60405180910390fd5b611d6681611fe8565b50565b60606000806000806000866001600082815260200190815260200160002060050160009054906101000a900460ff16611dd7576040517f08c379a0000000000000000000000000000000000000000000000000000000008152600401611dce90612b6b565b60405180910390fd5b6000600160008a815260200190815260200160002090508060000181600101548260020154836003015484600401805490508560050160019054906101000a900460ff16858054611e2790612e3b565b80601f0160208091040260200160405190810160405280929190818152602001828054611e5390612e3b565b8015611ea05780601f10611e7557610100808354040283529160200191611ea0565b820191906000526020600020905b815481529060010190602001808311611e8357829003601f168201915b50505050509550975097509750975097509750505091939550919395565b611ec6612126565b73ffffffffffffffffffffffffffffffffffffffff16611ee4611108565b73ffffffffffffffffffffffffffffffffffffffff1614611f3a576040517f08c379a0000000000000000000000000000000000000000000000000000000008152600401611f31906139fa565b60405180910390fd5b565b611f44610a11565b15611f84576040517f08c379a0000000000000000000000000000000000000000000000000000000008152600401611f7b90613a66565b60405180910390fd5b565b611f8e61212e565b60008060146101000a81548160ff0219169083151502179055507f5db9ee0a495bf2e6ff9c91a7834c1ba4fdd244a5e8aa4e537bd38aeae4b073aa611fd1612126565b604051611fde91906128b9565b60405180910390a1565b60008060009054906101000a900473ffffffffffffffffffffffffffffffffffffffff169050816000806101000a81548173ffffffffffffffffffffffffffffffffffffffff021916908373ffffffffffffffffffffffffffffffffffffffff1602179055508173ffffffffffffffffffffffffffffffffffffffff168173ffffffffffffffffffffffffffffffffffffffff167f8be0079c531659141344cd1fd0a4f28419497f9722a3daafe3b4186f6b6457e060405160405180910390a35050565b6120b4611f3c565b6001600060146101000a81548160ff0219169083151502179055507f62e78cea01bee320cd4e420270b5ea74000d11b0c9f74754ebdbfc544b05a2586120f8612126565b60405161210591906128b9565b60405180910390a1565b60008261211c8584612177565b1490509392505050565b600033905090565b612136610a11565b612175576040517f08c379a000000000000000000000000000000000000000000000000000000000815260040161216c90613ad2565b60405180910390fd5b565b60008082905060005b84518110156121c2576121ad828683815181106121a05761219f6130e8565b5b60200260200101516121cd565b915080806121ba90612d8a565b915050612180565b508091505092915050565b60008183106121e5576121e082846121f8565b6121f0565b6121ef83836121f8565b5b905092915050565b600082600052816020526040600020905092915050565b600080fd5b600080fd5b6000819050919050565b61222c81612219565b811461223757600080fd5b50565b60008135905061224981612223565b92915050565b600080fd5b600080fd5b600080fd5b60008083601f8401126122745761227361224f565b5b8235905067ffffffffffffffff81111561229157612290612254565b5b6020830191508360018202830111156122ad576122ac612259565b5b9250929050565b6000806000604084860312156122cd576122cc61220f565b5b60006122db8682870161223a565b935050602084013567ffffffffffffffff8111156122fc576122fb612214565b5b6123088682870161225e565b92509250509250925092565b61231d81612219565b82525050565b60006020820190506123386000830184612314565b92915050565b6000819050919050565b6123518161233e565b811461235c57600080fd5b50565b60008135905061236e81612348565b92915050565b60008083601f84011261238a5761238961224f565b5b8235905067ffffffffffffffff8111156123a7576123a6612254565b5b6020830191508360208202830111156123c3576123c2612259565b5b9250929050565b600080600080600080600060a0888a0312156123e9576123e861220f565b5b600088013567ffffffffffffffff81111561240757612406612214565b5b6124138a828b0161225e565b975097505060206124268a828b0161223a565b95505060406124378a828b0161223a565b94505060606124488a828b0161235f565b935050608088013567ffffffffffffffff81111561246957612468612214565b5b6124758a828b01612374565b925092505092959891949750929550565b600073ffffffffffffffffffffffffffffffffffffffff82169050919050565b60006124b182612486565b9050919050565b6124c1816124a6565b81146124cc57600080fd5b50565b6000813590506124de816124b8565b92915050565b600080604083850312156124fb576124fa61220f565b5b60006125098582860161223a565b925050602061251a858286016124cf565b9150509250929050565b60008115159050919050565b61253981612524565b82525050565b60006020820190506125546000830184612530565b92915050565b6000602082840312156125705761256f61220f565b5b600061257e8482850161223a565b91505092915050565b600081519050919050565b600082825260208201905092915050565b60005b838110156125c15780820151818401526020810190506125a6565b60008484015250505050565b6000601f19601f8301169050919050565b60006125e982612587565b6125f38185612592565b93506126038185602086016125a3565b61260c816125cd565b840191505092915050565b6126208161233e565b82525050565b600060c082019050818103600083015261264081896125de565b905061264f6020830188612314565b61265c6040830187612314565b6126696060830186612617565b6126766080830185612530565b61268360a0830184612530565b979650505050505050565b600081519050919050565b600082825260208201905092915050565b6000819050602082019050919050565b600082825260208201905092915050565b60006126d682612587565b6126e081856126ba565b93506126f08185602086016125a3565b6126f9816125cd565b840191505092915050565b600061271083836126cb565b905092915050565b6000602082019050919050565b60006127308261268e565b61273a8185612699565b93508360208202850161274c856126aa565b8060005b8581101561278857848403895281516127698582612704565b945061277483612718565b925060208a01995050600181019050612750565b50829750879550505050505092915050565b600060408201905081810360008301526127b48185612725565b90506127c36020830184612314565b9392505050565b600081519050919050565b600082825260208201905092915050565b6000819050602082019050919050565b6127ff81612219565b82525050565b600061281183836127f6565b60208301905092915050565b6000602082019050919050565b6000612835826127ca565b61283f81856127d5565b935061284a836127e6565b8060005b8381101561287b5781516128628882612805565b975061286d8361281d565b92505060018101905061284e565b5085935050505092915050565b600060208201905081810360008301526128a2818461282a565b905092915050565b6128b3816124a6565b82525050565b60006020820190506128ce60008301846128aa565b92915050565b600080604083850312156128eb576128ea61220f565b5b60006128f98582860161223a565b925050602061290a8582860161223a565b9150509250929050565b6000602082019050818103600083015261292e81846125de565b905092915050565b600060408201905061294b6000830185612530565b6129586020830184612314565b9392505050565b60008083601f8401126129755761297461224f565b5b8235905067ffffffffffffffff81111561299257612991612254565b5b6020830191508360208202830111156129ae576129ad612259565b5b9250929050565b6000806000806000606086880312156129d1576129d061220f565b5b60006129df8882890161223a565b955050602086013567ffffffffffffffff811115612a00576129ff612214565b5b612a0c8882890161225e565b9450945050604086013567ffffffffffffffff811115612a2f57612a2e612214565b5b612a3b8882890161295f565b92509250509295509295909350565b60008060408385031215612a6157612a6061220f565b5b6000612a6f8582860161223a565b9250506020612a808582860161235f565b9150509250929050565b600060208284031215612aa057612a9f61220f565b5b6000612aae848285016124cf565b91505092915050565b600060c0820190508181036000830152612ad181896125de565b9050612ae06020830188612314565b612aed6040830187612314565b612afa6060830186612617565b612b076080830185612314565b612b1460a0830184612530565b979650505050505050565b7f42616c6c6f74206e6f7420666f756e6400000000000000000000000000000000600082015250565b6000612b55601083612592565b9150612b6082612b1f565b602082019050919050565b60006020820190508181036000830152612b8481612b48565b9050919050565b600081905092915050565b82818337600083830152505050565b6000612bb18385612b8b565b9350612bbe838584612b96565b82840190509392505050565b6000612bd7828486612ba5565b91508190509392505050565b7f43616e646964617465206e6f7420666f756e6400000000000000000000000000600082015250565b6000612c19601383612592565b9150612c2482612be3565b602082019050919050565b60006020820190508181036000830152612c4881612c0c565b9050919050565b7f4e487b7100000000000000000000000000000000000000000000000000000000600052601160045260246000fd5b6000612c8982612219565b9150612c9483612219565b9250828203905081811115612cac57612cab612c4f565b5b92915050565b7f4261642074696d652072616e6765000000000000000000000000000000000000600082015250565b6000612ce8600e83612592565b9150612cf382612cb2565b602082019050919050565b60006020820190508181036000830152612d1781612cdb565b9050919050565b7f4e656564206174206c65617374206f6e652063616e6469646174650000000000600082015250565b6000612d54601b83612592565b9150612d5f82612d1e565b602082019050919050565b60006020820190508181036000830152612d8381612d47565b9050919050565b6000612d9582612219565b91507fffffffffffffffffffffffffffffffffffffffffffffffffffffffffffffffff8203612dc757612dc6612c4f565b5b600182019050919050565b600082905092915050565b7f4e487b7100000000000000000000000000000000000000000000000000000000600052604160045260246000fd5b7f4e487b7100000000000000000000000000000000000000000000000000000000600052602260045260246000fd5b60006002820490506001821680612e5357607f821691505b602082108103612e6657612e65612e0c565b5b50919050565b60008190508160005260206000209050919050565b60006020601f8301049050919050565b600082821b905092915050565b600060088302612ece7fffffffffffffffffffffffffffffffffffffffffffffffffffffffffffffffff82612e91565b612ed88683612e91565b95508019841693508086168417925050509392505050565b6000819050919050565b6000612f15612f10612f0b84612219565b612ef0565b612219565b9050919050565b6000819050919050565b612f2f83612efa565b612f43612f3b82612f1c565b848454612e9e565b825550505050565b600090565b612f58612f4b565b612f63818484612f26565b505050565b5b81811015612f8757612f7c600082612f50565b600181019050612f69565b5050565b601f821115612fcc57612f9d81612e6c565b612fa684612e81565b81016020851015612fb5578190505b612fc9612fc185612e81565b830182612f68565b50505b505050565b600082821c905092915050565b6000612fef60001984600802612fd1565b1980831691505092915050565b60006130088383612fde565b9150826002028217905092915050565b6130228383612dd2565b67ffffffffffffffff81111561303b5761303a612ddd565b5b6130458254612e3b565b613050828285612f8b565b6000601f83116001811461307f576000841561306d578287013590505b6130778582612ffc565b8655506130df565b601f19841661308d86612e6c565b60005b828110156130b557848901358255600182019150602085019450602081019050613090565b868310156130d257848901356130ce601f891682612fde565b8355505b6001600288020188555050505b50505050505050565b7f4e487b7100000000000000000000000000000000000000000000000000000000600052603260045260246000fd5b600080fd5b600080fd5b600080fd5b6000808335600160200384360303811261314357613142613117565b5b80840192508235915067ffffffffffffffff8211156131655761316461311c565b5b60208301925060018202360383131561318157613180613121565b5b509250929050565b7f4475706c69636174652063616e646964617465206e616d650000000000000000600082015250565b60006131bf601883612592565b91506131ca82613189565b602082019050919050565b600060208201905081810360008301526131ee816131b2565b9050919050565b600061320082612219565b915061320b83612219565b925082820190508082111561322357613222612c4f565b5b92915050565b60006132358385612592565b9350613242838584612b96565b61324b836125cd565b840190509392505050565b6000819050919050565b600061326c83856126ba565b9350613279838584612b96565b613282836125cd565b840190509392505050565b600061329a848484613260565b90509392505050565b600080fd5b600080fd5b600080fd5b600080833560016020038436030381126132cf576132ce6132ad565b5b83810192508235915060208301925067ffffffffffffffff8211156132f7576132f66132a3565b5b60018202360383131561330d5761330c6132a8565b5b509250929050565b6000602082019050919050565b600061332e8385612699565b93508360208402850161334084613256565b8060005b8781101561338657848403895261335b82846132b2565b61336686828461328d565b955061337184613315565b935060208b019a505050600181019050613344565b50829750879450505050509392505050565b600060a08201905081810360008301526133b381898b613229565b90506133c26020830188612314565b6133cf6040830187612314565b6133dc6060830186612617565b81810360808301526133ef818486613322565b905098975050505050505050565b7f42616c6c6f74206e6f742066696e616c697a6564000000000000000000000000600082015250565b6000613433601483612592565b915061343e826133fd565b602082019050919050565b6000602082019050818103600083015261346281613426565b9050919050565b7f416c72656164792066696e616c697a6564000000000000000000000000000000600082015250565b600061349f601183612592565b91506134aa82613469565b602082019050919050565b600060208201905081810360008301526134ce81613492565b9050919050565b7f566f74696e67206e6f7420656e64656400000000000000000000000000000000600082015250565b600061350b601083612592565b9150613516826134d5565b602082019050919050565b6000602082019050818103600083015261353a816134fe565b9050919050565b7f496e76616c69642063616e64696461746520696e646578000000000000000000600082015250565b6000613577601783612592565b915061358282613541565b602082019050919050565b600060208201905081810360008301526135a68161356a565b9050919050565b7f4e657720656e64206d757374206265206c617465720000000000000000000000600082015250565b60006135e3601583612592565b91506135ee826135ad565b602082019050919050565b60006020820190508181036000830152613612816135d6565b9050919050565b600060408201905061362e6000830185612314565b61363b6020830184612314565b9392505050565b7f566f74696e67206e6f7420737461727465640000000000000000000000000000600082015250565b6000613678601283612592565b915061368382613642565b602082019050919050565b600060208201905081810360008301526136a78161366b565b9050919050565b7f566f74696e6720656e6465640000000000000000000000000000000000000000600082015250565b60006136e4600c83612592565b91506136ef826136ae565b602082019050919050565b60006020820190508181036000830152613713816136d7565b9050919050565b7f42616c6c6f742066696e616c697a656400000000000000000000000000000000600082015250565b6000613750601083612592565b915061375b8261371a565b602082019050919050565b6000602082019050818103600083015261377f81613743565b9050919050565b7f416c726561647920766f74656400000000000000000000000000000000000000600082015250565b60006137bc600d83612592565b91506137c782613786565b602082019050919050565b600060208201905081810360008301526137eb816137af565b9050919050565b60008160601b9050919050565b600061380a826137f2565b9050919050565b600061381c826137ff565b9050919050565b61383461382f826124a6565b613811565b82525050565b60006138468284613823565b60148201915081905092915050565b7f4e6f7420656c696769626c650000000000000000000000000000000000000000600082015250565b600061388b600c83612592565b915061389682613855565b602082019050919050565b600060208201905081810360008301526138ba8161387e565b9050919050565b60006040820190506138d66000830186612314565b81810360208301526138e9818486613229565b9050949350505050565b60006040820190506139086000830185612617565b6139156020830184612617565b9392505050565b7f4f776e61626c653a206e6577206f776e657220697320746865207a65726f206160008201527f6464726573730000000000000000000000000000000000000000000000000000602082015250565b6000613978602683612592565b91506139838261391c565b604082019050919050565b600060208201905081810360008301526139a78161396b565b9050919050565b7f4f776e61626c653a2063616c6c6572206973206e6f7420746865206f776e6572600082015250565b60006139e4602083612592565b91506139ef826139ae565b602082019050919050565b60006020820190508181036000830152613a13816139d7565b9050919050565b7f5061757361626c653a2070617573656400000000000000000000000000000000600082015250565b6000613a50601083612592565b9150613a5b82613a1a565b602082019050919050565b60006020820190508181036000830152613a7f81613a43565b9050919050565b7f5061757361626c653a206e6f7420706175736564000000000000000000000000600082015250565b6000613abc601483612592565b9150613ac782613a86565b602082019050919050565b60006020820190508181036000830152613aeb81613aaf565b905091905056fea2646970667358221220ebed773259b75796d83224eb52cc6270ec90522ffa26e759bb4cebe93f42167664736f6c63430008140033",
  "linkReferences": {},
  "deployedLinkReferences": {}
}